:100000000C94B2000C94DA000C94DA000C94DA0030
:100010000C94DA000C94DA000C94DA000C940703C8
:100020000C94DA000C94DA000C94DA000C94DA00E8
:100030000C94DA000C94DA000C940F080C94DA009B
:100040000C948B0B0C94DA000C94D5020C94AF0238
:100050000C94DA000C94DA000C94DA000C94DA00B8
:100060000C94DA000C94DA0005A84CCDB2D44EB949
:100070003836A9020C50B9918688083CA6AAAA2A4B
:10008000BE000000803F07634236B79BD8A71A39ED
:10009000685618AEBAAB558C1D3CB7CC5763BD6DD6
:1000A000EDFD753EF6177231BF000000803F08007D
:1000B0000000BE922449123EABAAAA2ABECDCCCCE7
:1000C0004C3E00000080BEABAAAAAA3E0000000081
:1000D000BF000000803F0000000000084178D3BB53
:1000E0004387D1133D190E3CC3BD4282AD2B3E6800
:1000F000EC8276BED98FE1A93E4C80EFFFBE01C4F1
:10010000FF7F3F00000000000000000023002600E9
:10011000290000000000240027002A000000000041
:10012000250028002B000404040404040404020233
:100130000202020203030303030301020408102066
:100140004080010204081020010204081020000071
:100150000008000201000003040700000000000086
:100160000000B20E11241FBECFEFD8E0DEBFCDBF1E
:1001700025E0AAE3B2E001C01D92A135B207E1F784
:1001800012E0A0E0B1E0EEECF8E202C005900D92C2
:10019000AA33B107D9F710E0C2EBD0E004C0219731
:1001A000FE010E94800FC13BD107C9F70E94D50B09
:1001B0000C9465140C940000CF92DF92EF92FF92A2
:1001C0000F931F93CF93DF936C017A018B01C0E0F3
:1001D000D0E0CE15DF0589F0D8016D918D01D601F3
:1001E000ED91FC910190F081E02DC6010995892BDC
:1001F00011F47E0102C02196ECCFC701DF91CF91AF
:100200001F910F91FF90EF90DF90CF900895FC0128
:10021000918D828D981761F0828DDF01A80FB11D3D
:100220005D968C91928D9F5F9F73928F90E0089561
:100230008FEF9FEF0895FC01918D828D981731F01B
:10024000828DE80FF11D858D90E008958FEF9FEF6F
:100250000895FC01918D228D892F90E0805C9F4F45
:10026000821B91098F739927089586E592E00E9479
:10027000290121E0892B09F420E0822F0895FC0157
:10028000848DDF01A80FB11DA35ABF4F2C91848D1F
:1002900090E001968F739927848FA689B7892C9354
:1002A000A089B1898C9180648C93938D848D9813EF
:1002B00006C00288F389E02D80818F7D80830895B8
:1002C000EF92FF920F931F93CF93DF93EC0181E0A6
:1002D000888F9B8D8C8D981305C0E889F989808162
:1002E00085FD24C0F62E0B8D10E00F5F1F4F0F739E
:1002F0001127E02E8C8DE8120CC00FB607FCFACF48
:10030000E889F989808185FFF5CFCE010E943F0100
:10031000F1CF8B8DFE01E80FF11DE35AFF4FF08204
:100320000B8FEA89FB898081806207C0EE89FF8993
:100330006083E889F98980818064808381E090E02E
:10034000DF91CF911F910F91FF90EF900895CF9380
:10035000DF93EC01888D8823C9F0EA89FB898081CD
:1003600085FD05C0A889B9898C9186FD0FC00FB69F
:1003700007FCF5CF808185FFF2CFA889B9898C91E0
:1003800085FFEDCFCE010E943F01E7CFDF91CF91F6
:10039000089580E090E0892B29F00E9435018111B9
:1003A0000C9400000895CF93DF93EC01198218821A
:1003B00080E490E09B838A831D821C8283E090E02E
:1003C0009F838E8380E3E6E0F1E0DE0118960190E2
:1003D0000D928A95E1F718AE19AE1AAE1BAE1CAE9F
:1003E0001DAE1EAE1FAEFE01E05CFF4F10821182FB
:1003F00012821382DE01AC5BBF4F80E5E6E3F1E0E1
:1004000001900D928A95E1F7DE01AC56BF4F80EA6C
:10041000E6E8F1E001900D928A95E1F7DF91CF9146
:1004200008950E94A1136FEF7FEF83E293E00E9493
:1004300087096FEF7FEF8BE093E00E9487096FEFF2
:100440007FEF83EF92E00C94870961E070E083E234
:1004500093E00E94870961E070E08BE093E00E94E6
:10046000870961E070E083EF92E00C9487096FEFF9
:100470007FEF83E293E00E94DD086FEF7FEF8BE078
:1004800093E00E94DD086FEF7FEF83EF92E00C9422
:10049000DD0861E070E083E293E00E94DD0861E046
:1004A00070E08BE093E00E94DD0861E070E083EF94
:1004B00092E00C94DD086FEF7FEF83EF92E00C94F5
:1004C000C0086FEF7FEF83EF92E00C94C0086FEFEE
:1004D0007FEF8BE093E00C94C0086FEF7FEF83E237
:1004E00093E00C94C00861E070E083EF92E00C941C
:1004F000C00861E070E083EF92E00C94C00861E016
:1005000070E08BE093E00C94C00861E070E083E25F
:1005100093E00C94C0086FEF7FEF83E293E00E94BA
:10052000C0086FEF7FEF8BE093E00E94C0086FEF91
:100530007FEF83EF92E00C94C00861E070E083E20B
:1005400093E00E94C00861E070E08BE093E00E94BD
:10055000C00861E070E083EF92E00C94C0081F9245
:100560000F920FB60F9211242F933F934F935F93E7
:100570006F937F938F939F93AF93BF93EF93FF936B
:1005800086E592E00E943F01FF91EF91BF91AF910C
:100590009F918F917F916F915F914F913F912F919B
:1005A0000F900FBE0F901F9018951F920F920FB6CD
:1005B0000F9211242F938F939F93EF93FF93E091CA
:1005C0006602F09167028081E0916C02F0916D0209
:1005D00082FD12C0908180916F028F5F8F73209196
:1005E0007002821751F0E0916F02F0E0EA5AFD4F7D
:1005F000958F80936F0201C08081FF91EF919F9151
:100600008F912F910F900FBE0F901F9018951F92F2
:100610000F920FB60F9211242F933F934F935F9336
:100620006F937F938F939F93AF93BF93CF93DF93FA
:10063000EF93FF9320913C0330E0F901E25BFE4F22
:100640008491F901E65CFE4FD491F901EA5DFE4F19
:10065000C491CC23A1F081110E948A0AEC2FF0E012
:10066000EE0FFF1FE85FFE4FA591B491EC91ED23D3
:1006700031E020E009F430E0832F922F02C080E0C7
:1006800090E020914003309141032F5F3F4F309322
:1006900041032093400320913F03253618F026E0C4
:1006A00020933B0320913B032430D9F128F42230DE
:1006B00069F02330D9F060C0253009F453C02630EA
:1006C00009F05AC021E020930C0453C0009709F0B0
:1006D00053C020914003309141032436310508F482
:1006E00043C010920C0410923F031DC0813091054D
:1006F00009F042C0E0913F0321E02E0F20933F0319
:10070000F0E02091400330914103EE0FFF1FE55CC4
:10071000FC4F30872783109241031092400324E05E
:1007200029C00097B9F4E0913F0321E02E0F2093F8
:100730003F03F0E02091400330914103EE0FFF1F93
:10074000E55CFC4F308727831092410310924003F1
:1007500023E010C02091400330914103253631053C
:1007600058F007C0009741F41092410310924003E3
:1007700003C025E020933B0320913E032223B9F0E0
:10078000892B51F480913D03882321F080913D0312
:1007900061E009C02D9A0BC080913D03882331F0A0
:1007A00080913D0360E00E94B30A01C02D98FF9143
:1007B000EF91DF91CF91BF91AF919F918F917F91F9
:1007C0006F915F914F913F912F910F900FBE0F90BE
:1007D0001F901895CF93DF93EC0161E08E810E940A
:1007E000B30A64E170E080E090E00E94510B6C81FC
:1007F0007D818E81DF91CF910C94E30ACF93DF93BB
:10080000EC0160E470E08E810E94E30A64E170E034
:1008100080E090E00E94510B6C817D818E81DF91A0
:10082000CF910C94E30ACF93DF93EC0160E08E81CB
:100830000E94B30A64E170E080E090E00E94510BF6
:100840006C817D818E81DF91CF910C94E30ACF92F0
:10085000DF92EF92FF92CF93DF93EC018A819B812D
:10086000813021E092071CF080E091E005C018166D
:10087000190684F081E090E09B838A8383E293E011
:100880000E94FE038BE093E00E94FE0383EF92E060
:100890000E94FE0383E293E00E9413048BE093E046
:1008A0000E94130483EF92E00E941304CA80DB804D
:1008B0000D2C000CEE08FF08F7FE14C0E091560264
:1008C000F09157020190F081E02D6DE286E592E013
:1008D000099566277727CB016C197D098E099F0939
:1008E0004AE003C04AE0C701B6010E94390A42E06B
:1008F00050E066E372E086E592E0DF91CF91FF90F1
:10090000EF90DF90CF900C94DC00FC0122813381CA
:1009100037FF02C02D5F3F4F3595279535952795B9
:10092000FC01338322830C942704FC012281338150
:10093000220F331F220F331F338322830C9427048B
:1009400021E030E0FC013183208383E090E090934C
:1009500001018093000183E293E00E9413048BE085
:1009600093E00E94130483EF92E00C94130421E0BF
:1009700030E0FC013183208382E090E0909301011C
:100980008093000183E293E00E9413048BE093E0E4
:100990000E94130483EF92E00C94130421E030E0F2
:1009A000FC0131832083309301012093000183E215
:1009B00093E00E9413048BE093E00E94130483EF02
:1009C00092E00C94130421E030E0FC013183208399
:1009D000109201011092000183E293E00E9413043F
:1009E0008BE093E00E94130483EF92E00C941304D5
:1009F0000E94F41322E130E040E050E00E94021433
:100A00006E5F7F4F8F4F9F4F0E94A71020E030E412
:100A10004CE156E40E94FD0F0895CF92DF92EF92D1
:100A2000FF92CF93DF93EC016A857B85072E000C44
:100A3000880B990B0E94A7102C853D854E855F85FC
:100A40000E949B11288139814A815B810E94870F16
:100A50006B017C01688379838A839B8320E030E08B
:100A600040E85FE30E94961187FD0DC08FEF9FEF76
:100A70009B878A8780E090E0A0E8BFE38883998322
:100A8000AA83BB8318C020E030E0A901C701B601EA
:100A90000E94F30F18167CF081E090E09B878A8714
:100AA000188219821A821B82CE010E94F8046C8778
:100AB0007D878E879F87688179818A819B8120913C
:100AC0000001309101012130310509F444C044F4A2
:100AD000232B09F06BC020E030E04EE753E455C013
:100AE0002230310509F454C02330310509F05EC0CD
:100AF0009B01AC0160E070E080E89FE30E94860FFC
:100B00002BED3FE049E450E40E949B110E94F80F56
:100B100020E030E040E85FE30E94870F2EEB31EDEC
:100B20004FEF50E40E949B1120E030E040E05FE393
:100B30000E949B119B01AC0160E070E080E090E4BA
:100B40000E9408120E946F10072E000C880B990B50
:100B50000E94A7102BC09B01AC0160E070E080E810
:100B60009FE30E94860F2BED3FE049E450E40E9492
:100B70009B110E94F80F20E030E040E85FE30E9404
:100B8000870F20E030E04EEF52E40E949B110EC030
:100B90002EEB31ED4FEF50E40E949B119B01AC0115
:100BA00060E070E080E090E40E9408122C893D89AA
:100BB0004E895F890E949B11288939894A895B89FE
:100BC0000E94870F0E946F107D836C832885398572
:100BD000232BB1F0072E000C880B990B0E94A71055
:100BE00020E030E040E05FE30E949B1120E030E035
:100BF00040E05FE30E94870F0E946F107D836C834B
:100C00006C817D818E81DF91CF91FF90EF90DF909D
:100C1000CF900C94E30ACF92DF92EF92FF921F9352
:100C2000CF93DF93EC016A017B01122F20E030E0CB
:100C300040E050ECC701B6010E949611181624F44A
:100C4000C882D982EA82FB8220E030E0A901C70194
:100C5000B6010E94F30F87FF15C0188219821A820D
:100C60001B82112359F060E470E08E810E94E30A38
:100C700064E170E080E090E00E94510B1D821C82D4
:100C800060E024C020E030E040E85FE3C701B60147
:100C90000E949611181624F580E090E0A0E8BFE3CA
:100CA00088839983AA83BB83112359F060E870E09D
:100CB0008E810E94E30A64E170E080E090E00E948F
:100CC000510B8FEF90E09D838C8361E08E81DF91EB
:100CD000CF911F91FF90EF90DF90CF900C94B30ACB
:100CE000C882D982EA82FB8220E030E040E051E411
:100CF000C701B6010E949B119B01AC0160E070E04E
:100D000080E090E40E9408120E946F107D836C8343
:100D10008E81DF91CF911F91FF90EF90DF90CF9068
:100D20000C94E30ACF93DF93EC0120E040E050E025
:100D300060E87FEB83E293E00E940B0620E040E056
:100D400050E060E87FEB8BE093E00E940B0620E030
:100D500040E050E060E87FEB83EF92E00E940B06FA
:100D600019821882DF91CF91089520E040E050E091
:100D700060E87FE383E293E00E940B0620E040E01E
:100D800050E060E87FE38BE093E00E940B0620E0F8
:100D900040E050E060E87FE383EF92E00C940B06C4
:100DA000EF92FF920F931F93CF93DF93EC018B0190
:100DB00048AD59AD6AAD7BAD20E083E293E00E947F
:100DC0000B064CAD5DAD6EAD7FAD20E08BE093E0EA
:100DD0000E940B067E0180E4E80EF11CF7014081C1
:100DE00051816281738120E083EF92E00E940B06C3
:100DF0008CE0809FF001819FF00D1124EC0FFD1F0E
:100E000048AD59AD6AAD7BAD408751876287738726
:100E10000F5F1F4F809FD001819FB00D1124AC0F39
:100E2000BD1F4CAD5DAD6EAD7FAD4D935D936D93CC
:100E30007C931397E70188819981AA81BB81808B7C
:100E4000918BA28BB38BDF91CF911F910F91FF906C
:100E5000EF900895DF92EF92FF920F931F93CF933D
:100E6000DF93EC017B018091230390912403A091F7
:100E70002503B091260388AF99AFAAAFBBAF80918D
:100E80000B0390910C03A0910D03B0910E038CAF56
:100E90009DAFAEAFBFAFFE01E05CFF4F8091F302AC
:100EA0009091F402A091F502B091F60280839183B3
:100EB000A283B3838CE0D82ED69E8001D79E100DDE
:100EC00011240C0F1D1FF801408551856285738523
:100ED00020E083E293E00E940B06FFEFEF1AFF0A87
:100EE000DE9CF001DF9CF00D1124EC0FFD1F408112
:100EF00051816281738120E08BE093E00E940B06B8
:100F0000F801408951896289738920E083EF92E07A
:100F10000E940B0619821882DF91CF911F910F91C9
:100F2000FF90EF90DF900895FC0124813581211519
:100F3000310521F463E070E00C942A072430310578
:100F400021F463E070E00C94D0060895FC01248144
:100F500035812115310521F462E070E00C942A07F7
:100F60002430310521F462E070E00C94D00608953D
:100F7000FC01248135812115310521F461E070E007
:100F80000C942A072430310521F461E070E00C94C0
:100F9000D0060895FC01248135812115310521F405
:100FA00060E070E00C942A072430310521F460E001
:100FB00070E00C94D00608950F931F93CF93DF93A6
:100FC000CDB7DEB7C453D1400FB6F894DEBF0FBE25
:100FD000CDBF8C014FEF5FEFBA01FC0141935193FC
:100FE00061937193CF010E94D301F801E65CFE4F3B
:100FF0001082118212821382329711821082CE01E6
:1010000001960E94D301CC5CDE4F0FB6F894DEBF90
:101010000FBECDBFDF91CF911F910F9108951F9209
:101020000F920FB60F9211240F900FBE0F901F90CA
:1010300018950F931F93E5E5F4E0A0E0B0E001916F
:101040001191219131910617170728073907D9F512
:10105000409111045091120464E1649F9001659FD6
:10106000300D1124C9018A0F9B1FFC01EE0FFF1FD9
:10107000EE0FFF1FED55FB4F448155819C012B5D09
:101080003F4FCA0195958795220F331F220F331FBB
:10109000F901E35FFB4F40FD04C00480F581E02DC2
:1010A0000DC0DC01AF5EBB4F4D915C912481358159
:1010B000FA01E20FF31F0190F081E02D8F5E9B4F4C
:1010C000099581E006C01196A431B10509F0B7CFAA
:1010D00080E01F910F9108953FB7F89480914D05DE
:1010E00090914E05A0914F05B091500526B5A89B53
:1010F00005C02F3F19F00196A11DB11D3FBFBA2FAA
:10110000A92F982F8827820F911DA11DB11DBC0109
:10111000CD0142E0660F771F881F991F4A95D1F7CE
:101120000895CF92DF92EF92FF926B017C01809144
:10113000450590914605009719F0019729F013C0D5
:101140005093160440931504C701B6010E94190874
:10115000882349F0C0924705D0924805E09249059E
:10116000F0924A0508C01092470510924805109267
:10117000490510924A05FF90EF90DF90CF900895B7
:10118000CF93DF93EC01072E000C880B990B0E9484
:10119000A71020E030E040E85DE30E949B11288129
:1011A00039814A815B810E94870FAB01BC0121E03C
:1011B000CE01DF91CF910C940B064F925F926F920C
:1011C0007F928F929F92AF92BF92CF92DF92EF92D7
:1011D000FF92CF93DF93EC017B0120E030E040E809
:1011E0005FE3688979898A899B890E94860F20E05C
:1011F00030E04EE753E40E94FD0F2B013C012C89A7
:101200003D894E895F890E94870F4B015C01B701C0
:10121000FF0C880B990B0E94A7102DEC3CEC4CE4C2
:101220005EE30E949B119B01AC01C301B2010E94CD
:10123000870F6B017C0120E030E0A9010E94F30FD1
:1012400087FF07C0CE010E94FE03C12CD12C76017E
:1012500015C02AE939E949E15FE3C701B6010E94F7
:10126000961118165CF4CE010E94EA038AE9C82E92
:1012700089E9D82E89E1E82E8FE3F82EA70196019F
:10128000C501B4010E94860F2DEC3CEC4CE45EE3FA
:101290000E94F30F87FF0AC02DEC3CEC4CE45EE3A8
:1012A000C701B6010E94870F4B015C01A70196019F
:1012B000C501B4010E94860F6C8B7D8B8E8B9F8B3A
:1012C00020E030E04EE753E4C701B6010E949B11D5
:1012D00020E030E040E85FE30E94870F688B798B65
:1012E0008A8B9B8B188219821A821B82CE01DF9116
:1012F000CF91FF90EF90DF90CF90BF90AF909F90F5
:101300008F907F906F905F904F900C9413044F924A
:101310005F926F927F928F929F92AF92BF92CF9285
:10132000DF92EF92FF92CF93DF93EC017B0120E0FD
:1013300030E040E85FE3688979898A899B890E9467
:10134000860F20E030E04EE753E40E94FD0F4B0192
:101350005C012C893D894E895F890E94870F2B0192
:101360003C01B701FF0C880B990B0E94A7102DECD4
:101370003CEC4CE45EE30E949B119B01AC01C30179
:10138000B2010E94870F6B017C0120E030E040E851
:101390005FE30E949611181654F4CE010E94EA03EE
:1013A000C12CD12C90E8E92E9FE3F92E12C02DEC30
:1013B0003CEC4CE45EE3C701B6010E94F30F87FFEB
:1013C00008C08DECC82E8CECD82E8CE4E82E8EE371
:1013D000F82EA5019401C701B6010E94860F2DECDD
:1013E0003CEC4CE45EE30E94F30F87FF0DC02DEC54
:1013F0003CEC4CE45EE3C701B6010E94860F4B0152
:101400005C01CE010E94FE03A5019401C701B60153
:101410000E94860F6C8B7D8B8E8B9F8B20E030E043
:101420004EE753E4C501B4010E949B1120E030E077
:1014300040E85FE30E94870F688B798B8A8B9B8BD8
:1014400080E090E0A0E8BFE388839983AA83BB8310
:10145000CE01DF91CF91FF90EF90DF90CF90BF90C2
:10146000AF909F908F907F906F905F904F900C9473
:1014700013048F929F92AF92BF920F931F93CF93BB
:10148000DF93CDB7DEB7A1970FB6F894DEBF0FBEDE
:10149000CDBF19A2423008F44AE08E010F5D1F4F04
:1014A000842E912CA12CB12CA50194010E943414FE
:1014B000E62FB901CA0101501109EA3014F4E05DC8
:1014C00001C0E95CD801EC93232B242B252B61F779
:1014D0000115110571F0F80101900020E9F731972D
:1014E000AF01401B510BB80186E592E00E94DC0081
:1014F00002C080E090E0A1960FB6F894DEBF0FBE68
:10150000CDBFDF91CF911F910F91BF90AF909F9072
:101510008F900895833081F028F4813099F08230E3
:10152000A1F008958730A9F08830B9F08430D1F463
:10153000809180008F7D03C0809180008F778093A1
:101540008000089584B58F7702C084B58F7D84BDF7
:1015500008958091B0008F7703C08091B0008F7D97
:101560008093B00008951F93CF93DF93282F30E02E
:10157000F901E25BFE4F8491F901E65CFE4FD491E4
:10158000F901EA5DFE4FC491CC23C9F0162F8111F9
:101590000E948A0AEC2FF0E0EE0FFF1FE45EFE4F80
:1015A000A591B4918FB7F894111105C09C91ED2FBE
:1015B000E095E92302C0EC91ED2BEC938FBFDF9116
:1015C000CF911F910895482F50E0FA01E65CFE4F3D
:1015D0009491FA01EA5DFE4F2491222399F030E0C4
:1015E000220F331FF901EE5EFE4FA591B491F90170
:1015F000E45EFE4F259134912FB7F894EC91E92BDE
:10160000EC932FBF6115710511F460E004C06F3FCA
:10161000710519F461E00C94B30AFA01E25BFE4F24
:10162000E491E330F9F048F4E130B9F0E230A1F5AB
:1016300084B5806284BD68BD0895E730E9F0E83084
:1016400019F1E43049F58091800080628093800038
:1016500070938B0060938A00089584B5806884BD80
:1016600067BD0895809180008068809380007093AA
:1016700089006093880008958091B000806880930D
:10168000B0006093B30008958091B00080628093B1
:10169000B0006093B4000895603871050CF0BACFC3
:1016A000B4CF8F929F92AF92BF92CF92DF92EF9280
:1016B000FF926B017C010E946C084B015C01C1141C
:1016C000D104E104F104F1F00E946C08DC01CB01CB
:1016D00088199909AA09BB09883E9340A105B1055B
:1016E00070F321E0C21AD108E108F10888EE880EF3
:1016F00083E0981EA11CB11CC114D104E104F104C3
:1017000019F7DDCFFF90EF90DF90CF90BF90AF90B3
:101710009F908F9008951F920F920FB60F921124F1
:101720002F933F938F939F93AF93BF9380915202D8
:1017300090915302A0915402B091550230914C0502
:1017400023E0230F2D3720F40196A11DB11D05C004
:1017500026E8230F0296A11DB11D20934C0580930E
:10176000520290935302A0935402B0935502809179
:101770004D0590914E05A0914F05B09150050196F1
:10178000A11DB11D80934D0590934E05A0934F056B
:10179000B0935005BF91AF919F918F913F912F9141
:1017A0000F900FBE0F901F901895CF93DF9300D02E
:1017B00000D000D0CDB7DEB7789484B5826084BD08
:1017C00084B5816084BD85B5826085BD85B5816045
:1017D00085BD80916E00816080936E0010928100C3
:1017E000809181008260809381008091810081607E
:1017F000809381008091800081608093800080913F
:10180000B10084608093B1008091B00081608093CA
:10181000B00080917A00846080937A0080917A0091
:10182000826080937A0080917A00816080937A0050
:1018300080917A00806880937A001092C10080E4E1
:1018400080937C0080917A00806480937A008091FC
:101850007A0086FDFCCF609178008091790070E07D
:10186000782B072E000C880B990B611571058105EB
:10187000910511F00E94F913F89482E08093B00072
:101880008093B10094E69093B3001092B2008093DD
:101890007000789480933B0310923F0380913C0347
:1018A00090E0FC01E65CFE4F2491FC01EA5DFE4FF6
:1018B00084918823C9F090E0880F991FFC01EE5EA7
:1018C000FE4F45915491FC01E45EFE4FA591B49109
:1018D0009FB7F894FA0180812095822380838C91B0
:1018E000E22FE823EC939FBFE0916602F09167023C
:1018F00082E08083E0916202F09163021082E091C5
:101900006402F09165028FEC808310926E02E09188
:101910006A02F0916B0286E08083E0916802F091A8
:101920006902808180618083E0916802F0916902A0
:10193000808188608083E0916802F09169028081F3
:1019400080688083E0916802F091690280818F7DD8
:1019500080838FB7F8944091520250915302609166
:101960005402709155028FBF80911304909114041A
:10197000092E000CAA0BBB0B840F951FA61FB71FC7
:1019800080934E0290934F02A0935002B093510265
:1019900064E670E080E090E00E94510B20E040E0BF
:1019A00050E060E87FE383E293E00E940B0620E0D2
:1019B00040E050E060E07FE38BE093E00E940B06A4
:1019C00020E040E050E0BA0183EF92E00E940B0675
:1019D00070E2A72EB12C8091110490911204892BF2
:1019E00009F45CC02FB7F894809152029091530291
:1019F000A0915402B09155022FBF40914E025091D8
:101A00004F026091500270915102841B950BA60BFE
:101A1000B70BB7FD43C08FB7F89440915202509175
:101A2000530260915402709155028FBF809113044C
:101A300090911404092E000CAA0BBB0B840F951F68
:101A4000A61FB71F80934E0290934F02A09350029F
:101A5000B093510280913A0290913B0282309105FD
:101A600041F08330910551F0019759F483E293E0FE
:101A700002C08BE093E00E940D0507C083EF92E067
:101A8000FACF10923B0210923A0280913A02909162
:101A90003B02019690933B0280933A0282E493E0EA
:101AA000909349028093480220903F03312C30925A
:101AB0004B0220924A0280910C0490E090934D02D8
:101AC00080934C0280913B03853009F0F1C08091F6
:101AD000440390914503885891098D35910588F408
:101AE00080913F03843041F48091460390914703F5
:101AF0008097479708F48AC080913F03843408F0A8
:101B0000DAC0F6E02F1631040CF421C188E493E02A
:101B10009E838D8353E0852E912C65ECC62E6DE956
:101B2000D62E6CE1E62E61E8F62E821493040CF0BA
:101B30005AC0AD81BE816D917C911197FD013497A2
:101B40000081118180E090E00E94A5102B013C01F2
:101B5000B80180E090E00E94A51069837A838B83AE
:101B60009C832DEC3CEC4CE45FE30E949B119B01B9
:101B7000AC01C301B2010E94F30F87FD19C02DEC27
:101B80003CEC4CE45FE3C301B2010E949B119B015A
:101B9000AC0169817A818B819C810E94F30FE82FCF
:101BA000880FFF0BEE27FF0FEE1FFF27319602C0B5
:101BB000E0E0F0E0A701960163E971E080E091E0E8
:101BC0000E94700F6F01FF0FEE08FF08C626D72690
:101BD000E826F926BFEF8B1A9B0AED81FE8132962B
:101BE000FE83ED83A2CFC0924202D0924302E092E4
:101BF0004402F0924502B0924702A09246028FEF53
:101C00009FEF90933F0280933E021DC08091480356
:101C1000909149030997099708F06ECF10924702F7
:101C2000109246028FEF9FEFDC0180934202909367
:101C30004302A0934402B0934502A3E0B0E0B09306
:101C40003F02A0933E026091420270914302809154
:101C500044029091450200910D0410910E042091D0
:101C60000F0430911004601771078207930709F081
:101C700072C040913C0250913D024F5F5F4F5093C4
:101C80003D0240933C026091470570914805809168
:101C9000490590914A050E94910868EC70E080E047
:101CA00090E00E94510B92E090933B0310923F030F
:101CB0000E94C90190CE80914603909147038254BF
:101CC00091098E9708F01DCF80E090E040E050E051
:101CD000BA01FC01E85BFC4F2081318129503109B8
:101CE0002930310508F00DCFFC01E65BFC4F208167
:101CF00031812751310922313105E0F4440F551F5C
:101D0000661F771F416004968038910511F7B092E5
:101D10004702A092460240934202509343026093CE
:101D2000440270934502E3E0F0E0F0933F02E09359
:101D30003E0289CF2081318126503109273031057B
:101D400008F0DFCE440F551F661F771FDCCFA2E0DF
:101D5000A0933B03ABCF10923D0210923C0240E0B7
:101D600050E099CFCF92DF92EF92FF920F931F93A3
:101D7000CF93DF93E6E5F2E01382128288EE93E0E0
:101D8000A0E0B0E084839583A683B7838AE292E0E3
:101D90009183808385EC90E09587848784EC90E044
:101DA0009787868780EC90E0918B808B81EC90E028
:101DB000938B828B82EC90E0958B848B86EC90E009
:101DC000978B868B118E128E138E148EC3E2D3E006
:101DD00001E010E01B870A878AE090E09F838E83F2
:101DE00019861886CE010E94F8046C877D878E873D
:101DF0009F87C12CD12C80E8E82E8FE3F82ECC8A67
:101E0000DD8AEE8AFF8AC88AD98AEA8AFB8AC88272
:101E1000D982EA82FB8220E040E050E060E070E49A
:101E2000CE010E940B06CBE0D3E01B870A8789E036
:101E300090E09F838E8319870887CE010E94F80463
:101E40006C877D878E879F87CC8ADD8AEE8AFF8AA2
:101E5000C88AD98AEA8AFB8AC882D982EA82FB8246
:101E600020E040E050E060E070E4CE010E940B060C
:101E7000C3EFD2E01B870A8786E090E09F838E83C2
:101E800082E090E099878887CE010E94F8046C87F1
:101E90007D878E879F87CC8ADD8AEE8AFF8AC88AF3
:101EA000D98AEA8AFB8AC882D982EA82FB8220E048
:101EB00040E050E060E070E4CE010E940B06EBE3EE
:101EC000F3E08CE0818313828DE094E0DF91CF9189
:101ED0001F910F91FF90EF90DF90CF900C94DC0753
:101EE000DB018F939F930E942114BF91AF91A29F1A
:101EF000800D911DA39F900DB29F900D1124089508
:101F0000EE0FFF1F0590F491E02D09945058BB2768
:101F1000AA270E949E0F0C9448110E940F1138F0BE
:101F20000E94161120F039F49F3F19F426F40C9406
:101F30000C110EF4E095E7FB0C940611E92F0E94BA
:101F40006D1158F3BA17620773078407950720F0DD
:101F500079F4A6F50C948F110EF4E0950B2EBA2FA0
:101F6000A02D0B01B90190010C01CA01A00111249F
:101F7000FF27591B99F0593F50F4503E68F11A164B
:101F8000F040A22F232F342F4427585FF3CF4695DC
:101F900037952795A795F0405395C9F77EF41F16FE
:101FA000BA0B620B730B840BBAF09150A1F0FF0FC8
:101FB000BB1F661F771F881FC2F70EC0BA0F621FB4
:101FC000731F841F48F4879577956795B795F795A4
:101FD0009E3F08F0B0CF9395880F08F09927EE0F39
:101FE0009795879508950E94E21008F481E008957E
:101FF0000E941F11E3950C9459110E9411100C942A
:1020000048110E94161158F00E940F1140F029F457
:102010005F3F29F00C94061151110C9490110C940F
:102020000C110E946D1168F39923B1F3552391F3BC
:10203000951B550BBB27AA2762177307840738F037
:102040009F5F5F4F220F331F441FAA1FA9F335D094
:102050000E2E3AF0E0E832D091505040E695001C48
:10206000CAF72BD0FE2F29D0660F771F881FBB1F02
:10207000261737074807AB07B0E809F0BB0B802DE0
:10208000BF01FF2793585F4F3AF09E3F510578F00C
:102090000C9406110C9490115F3FE4F3983ED4F336
:1020A000869577956795B795F7959F5FC9F7880FE0
:1020B000911D9695879597F90895E1E0660F771F32
:1020C000881FBB1F621773078407BA0720F0621BC3
:1020D000730B840BBA0BEE1F88F7E09508950E94EE
:1020E00076106894B1110C94901108950E947511A6
:1020F00088F09F5798F0B92F9927B751B0F0E1F0C9
:10210000660F771F881F991F1AF0BA95C9F714C078
:10211000B13091F00E948F11B1E008950C948F11AD
:10212000672F782F8827B85F39F0B93FCCF38695B1
:1021300077956795B395D9F73EF49095809570950E
:1021400061957F4F8F4F9F4F0895E89409C097FB8B
:102150003EF490958095709561957F4F8F4F9F4F7E
:102160009923A9F0F92F96E9BB279395F6958795C2
:1021700077956795B795F111F8CFFAF4BB0F11F485
:1021800060FF1BC06F5F7F4F8F4F9F4F16C088232C
:1021900011F096E911C0772321F09EE8872F762F62
:1021A00005C0662371F096E8862F70E060E02AF0A3
:1021B0009A95660F771F881FDAF7880F969587958F
:1021C00097F90895990F0008550FAA0BE0E8FEEF64
:1021D00016161706E807F907C0F012161306E407EB
:1021E000F50798F0621B730B840B950B39F40A26E4
:1021F00061F0232B242B252B21F408950A2609F4C2
:10220000A140A6958FEF811D811D089597F99F67C5
:1022100080E870E060E008959FEF80EC089500246E
:102220000A941616170618060906089500240A943B
:10223000121613061406050608950C940C110E943C
:102240007511D8F3E894E0E0BB279F57F0F02AED32
:102250003FE049EC06C0EE0FBB0F661F771F881FDB
:1022600028F0B23A62077307840728F0B25A620B6B
:10227000730B840BE3959A9572F7803830F49A9536
:10228000BB0F661F771F881FD2F790480C949412DB
:10229000092E0394000C11F4882352F0BB0F40F474
:1022A000BF2B11F460FF04C06F5F7F4F8F4F9F4FB4
:1022B0000895EF93E0FF07C0A2EA2AED3FE049EC62
:1022C0005FEB0E949E0F0E9448110F90039401FC47
:1022D0009058E8E6F0E00C94C71257FD9058440F70
:1022E000551F59F05F3F71F04795880F97FB991F75
:1022F00061F09F3F79F08795089512161306140632
:10230000551FF2CF4695F1DF08C0161617061806BE
:10231000991FF1CF86957105610508940895E89499
:10232000BB2766277727CB0197F908950E94E21013
:1023300008F48FEF08950E94AE110C9448110E948A
:102340000F1138F00E94161120F0952311F00C9413
:1023500006110C940C1111240C9490110E946D1113
:1023600070F3959FC1F3950F50E0551F629FF001E8
:10237000729FBB27F00DB11D639FAA27F00DB11D01
:10238000AA1F649F6627B00DA11D661F829F22278A
:10239000B00DA11D621F739FB00DA11D621F839F11
:1023A000A00D611D221F749F3327A00D611D231FE7
:1023B000849F600D211D822F762F6A2F11249F5735
:1023C00050409AF0F1F088234AF0EE0FFF1FBB1F38
:1023D000661F771F881F91505040A9F79E3F5105F7
:1023E00080F00C9406110C9490115F3FE4F3983E3A
:1023F000D4F3869577956795B795F795E7959F5FA1
:10240000C1F7FE2B880F911D9695879597F9089532
:10241000FA01EE0FFF1F309621053105A1F161157C
:10242000710561F48038BFE39B0749F168949038E7
:10243000810561F08038BFEF9B0741F099234AF591
:10244000FF3FE1053105210519F1E8940894E7956E
:10245000D901AA2329F4AB2FBE2FF85FD0F310C007
:10246000FF5F70F4A695E0F7F73950F019F0FF3AE6
:1024700038F49F779F930DD00F9007FC90580895E4
:1024800046F00C940C1160E070E080E89FE3089542
:102490004FE79F775F934F933F932F930E942513AE
:1024A0002F913F914F915F910E949B110C9460126C
:1024B00029F416F00C9406110C948F110C940C1145
:1024C0000E947511A8F39638A0F707F80F92E894C8
:1024D0002BE33AEA48EB5FE70E94B1110F920F92AB
:1024E0000F924DB75EB70F920E946D13E6E8F0E0D1
:1024F0000E94A0124F915F91EF91FF91E595EE1F21
:10250000FF1F49F0FE57E0684427EE0F441FFA957D
:10251000E1F74195550B0E94E7120F9007FE0C94CE
:10252000DB1208959F3F31F0915020F48795779505
:102530006795B795880F911D9695879597F908959A
:10254000DF93CF931F930F93FF92EF92DF927B0164
:102550008C01689406C0DA2EEF010E94AE11FE01D4
:10256000E894A5912591359145915591A6F3EF01F8
:102570000E949E0FFE019701A801DA9469F7DF908F
:10258000EF90FF900F911F91CF91DF9108959F934E
:102590008F937F936F93FF93EF939B01AC010E9406
:1025A0009B11EF91FF910E94A0122F913F914F91AB
:1025B0005F910C949B119B01AC0160E070E080E89E
:1025C0009FE30C94FD0F0C9406110C9492120E9440
:1025D0007511D8F39923C9F3940F511DA3F39150AA
:1025E000504094F059F0882332F0660F771F881F0F
:1025F00091505040C1F79E3F51052CF7880F911D17
:102600009695879597F908955F3FACF0983E9CF0BA
:10261000BB27869577956795B79508F4B160939534
:10262000C1F7BB0F58F711F460FFE8CF6F5F7F4F22
:102630008F4F9F4FE3CF0C94901116F00C94921291
:102640000C940C1168940C9406110E947511A8F357
:102650009923C1F3AEF3DF93CF931F930F93FF92B0
:10266000C92FDD2788232AF02197660F771F881F3F
:10267000DAF720E030E040E85FEB9FE3883920F0B4
:10268000803E38F021968F770E94870FEEEAF0E0C7
:1026900004C00E94870FEBEDF0E00E94A0128B01B6
:1026A000BE01EC01FB2E6F5771097595771F880BE2
:1026B000990B0E94A71028E132E741E35FE30E94F3
:1026C000AE11AF2D9801AE01FF900F911F91CF91E8
:1026D000DF910E949E0F0C944811FA01DC01AA0FB1
:1026E000BB1F9B01AC01BF5728F422273327442787
:1026F000507820C0B75190F4AB2F00244695379501
:102700002795011CA395D2F3002071F0220F331FEF
:10271000441FB395DAF30ED00C94860F6130710527
:10272000A0E88A07B94630F49B01AC0166277727F9
:1027300088279078309621F0208331834283538319
:10274000089581E090E0F8940C9465148F929F9224
:10275000AF92BF92CF92DF92EF92FF92CF93DF932F
:10276000EC01688179818A819B8161157105810500
:10277000910521F464E279ED8BE597E02DE133EFEB
:1027800041E050E00E94021449015A019B01AC0152
:10279000A7EAB1E40E9421146B017C01ACEEB4EF16
:1027A000A50194010E942F14DC01CB018C0D9D1D0D
:1027B000AE1DBF1DB7FF03C00197A109B0488883B4
:1027C0009983AA83BB83BC01CD019F77DF91CF9111
:1027D000FF90EF90DF90CF90BF90AF909F908F9041
:1027E00008950E94A613089582E091E00E94A61326
:1027F0000895609302017093030180930401909304
:1028000005010895052E97FB1EF400940E941914EB
:1028100057FD07D00E94341407FC03D04EF40C94EB
:10282000191450954095309521953F4F4F4F5F4F6C
:10283000089590958095709561957F4F8F4F9F4F2C
:1028400008950E945614A59F900DB49F900DA49FCB
:10285000800D911D11240895B7FF0C9421140E943E
:102860002114821B930B0895A1E21A2EAA1BBB1BF5
:10287000FD010DC0AA1FBB1FEE1FFF1FA217B3074C
:10288000E407F50720F0A21BB30BE40BF50B661F62
:10289000771F881F991F1A9469F760957095809526
:1028A00090959B01AC01BD01CF010895A29FB0019D
:1028B000B39FC001A39F700D811D1124911DB29F74
:0E28C000700D811D1124911D0895F894FFCF15
:1028CE00010001000000CDCC4C3E000080BF000096
:1028DE0080BF0000003F000080BFCDCC4C3E00000A
:1028EE00003FCDCC4C3E000080BF0000003FCDCC61
:1028FE004C3ECDCC4C3E5FA0FF00DF20FF00010020
:10290E0000001FE0FF006F90FF00EF10FF00AF50C0
:10291E00FF002FD0FF004FB0FF00CF30FF008F70B1
:10292E00FF000FF0FF0057A8FF00D728FF009768A1
:10293E00FF0017E8FF006798FF00E718FF00A75891
:10294E00FF0027D8FF009D0200008B020000B50695
:10295E00000092060000850200007F02000079024E
:10296E000000730200006D020000670200006102A9
:10297E0000005B020000CA070000B8070000A607AF
:10298E00000094070000E3040000CE040000B7042A
:10299E000000A00400009D0200008B020000B5069E
:1029AE000000920600004902000025020000790294
:1029BE0000009504000037020000130200006102BF
:1029CE00000085040000CA070000B8070000A60733
:1029DE00000094070000E3040000CE040000B704DA
:1029EE000000A0040000000000006001DC002901CE
:0A29FE0007011B01A7010D0A0000EC
:00000001FF
